:020000040800F2
:1000000000500020758C0008C58A0008CB8A0008C3
:10001000D18A0008D78A0008DD8A000800000000A5
:10002000000000000000000000000000E38A00085B
:10003000EF8A000800000000FB8A0008078B000818
:10004000BD8C0008BD8C0008BD8C0008BD8C00086C
:10005000BD8C0008BD8C0008BD8C0008BD8C00085C
:10006000BD8C0008BD8C0008BD8C0008BD8C00084C
:10007000BD8C0008BD8C0008BD8C0008BD8C00083C
:10008000BD8C0008BD8C0008BD8C0008BD8C00082C
:10009000BD8C0008BD8C0008BD8C0008BD8C00081C
:1000A000BD8C0008BD8C0008BD8C0008BD8C00080C
:1000B000BD8C0008BD8C0008BD8C0008BD8C0008FC
:1000C000BD8C0008BD8C0008BD8C0008BD8C0008EC
:1000D000BD8C0008158B0008BD8C0008BD8C000885
:1000E000BD8C0008BD8C0008BD8C0008000000001D
:1000F0000000000000000000000000000000000000
:0C01000000000000000000005FF808F1A3
:1001100010B5054C237833B9044B13B10448AFF341
:1001200000800123237010BD80000020000000002B
:10013000B4BC000808B5034B1BB103490348AFF337
:10014000008008BD0000000084000020B4BC00084E
:1001500081F0004102E000BF83F0004330B54FEA78
:1001600041044FEA430594EA050F08BF90EA020FE5
:100170001FBF54EA000C55EA020C7FEA645C7FEA78
:10018000655C00F0E2804FEA5454D4EB5555B8BF9B
:100190006D420CDD2C4480EA020281EA030382EA0C
:1001A000000083EA010180EA020281EA0303362D9E
:1001B00088BF30BD11F0004F4FEA01314FF4801C71
:1001C0004CEA113102D0404261EB410113F0004F83
:1001D0004FEA03334CEA133302D0524263EB43033A
:1001E00094EA050F00F0A780A4F10104D5F1200ED8
:1001F0000DDB02FA0EFC22FA05F2801841F1000133
:1002000003FA0EF2801843FA05F359410EE0A5F106
:1002100020050EF1200E012A03FA0EFC28BF4CF037
:10022000020C43FA05F3C01851EBE37101F00045ED
:1002300007D54FF0000EDCF1000C7EEB00006EEBFA
:100240000101B1F5801F1BD3B1F5001F0CD3490884
:100250005FEA30004FEA3C0C04F101044FEA4452DB
:1002600012F5800F80F09A80BCF1004F08BF5FEA62
:10027000500C50F1000041EB045141EA050130BD42
:100280005FEA4C0C404141EB0101013C28BFB1F554
:10029000801FE9D291F0000F04BF01460020B1FA9F
:1002A00081F308BF2033A3F10B03B3F120020CDA72
:1002B0000C3208DD02F1140CC2F10C0201FA0CF050
:1002C00021FA02F10CE002F11402D8BFC2F1200CB5
:1002D00001FA02F120FA0CFCDCBF41EA0C0190406B
:1002E000E41AA2BF01EB0451294330BD6FEA0404B4
:1002F0001F3C1CDA0C340EDC04F11404C4F120029F
:1003000020FA04F001FA02F340EA030021FA04F3B0
:1003100045EA030130BDC4F10C04C4F1200220FA07
:1003200002F001FA04F340EA0300294630BD21FA45
:1003300004F0294630BD94F0000F83F4801306BF0B
:1003400081F480110134013D4EE77FEA645C18BFFF
:100350007FEA655C29D094EA050F08BF90EA020F96
:1003600005D054EA000C04BF1946104630BD91EA8E
:10037000030F1EBF0021002030BD5FEA545C05D191
:100380004000494128BF41F0004130BD14F58004D0
:100390003CBF01F5801130BD01F0004545F0FE4144
:1003A00041F470014FF0000030BD7FEA645C1ABF79
:1003B000194610467FEA655C1CBF0B46024650EAB0
:1003C000013406BF52EA033591EA030F41F40021DC
:1003D00030BD00BF90F0000F04BF0021704730B562
:1003E0004FF4806404F132044FF000054FF0000137
:1003F00050E700BF90F0000F04BF0021704730B5F8
:100400004FF4806404F1320410F0004548BF4042CC
:100410004FF000013EE700BF42004FEAE2014FEA21
:1004200031014FEA02701FBF12F07F4393F07F4FFC
:1004300081F06051704732F07F4208BF704793F0FF
:100440007F4F04BF41F40021704730B54FF4607412
:1004500001F0004521F000411CE700BF50EA010215
:1004600008BF704730B54FF000050AE050EA0102BE
:1004700008BF704730B511F0004502D5404261EB2E
:1004800041014FF4806404F132045FEA915C3FF46F
:10049000D8AE4FF003025FEADC0C18BF03325FEA0C
:1004A000DC0C18BF033202EBDC02C2F1200300FABD
:1004B00003FC20FA02F001FA03FE40EA0E0021FAE2
:1004C00002F11444BDE600BF70B54FF0FF0C4CF4D0
:1004D000E06C1CEA11541DBF1CEA135594EA0C0F82
:1004E00095EA0C0F00F0DEF82C4481EA030621EABD
:1004F0004C5123EA4C5350EA013518BF52EA0335F8
:1005000041F4801143F4801338D0A0FB02CE4FF0A9
:100510000005E1FB02E506F00042E0FB03E54FF0D9
:100520000006E1FB03569CF0000F18BF4EF0010ED1
:10053000A4F1FF04B6F5007F64F5407404D25FEACD
:100540004E0E6D4146EB060642EAC62141EA555180
:100550004FEAC52040EA5E504FEACE2EB4F1FD0CC2
:1005600088BFBCF5E06F1ED8BEF1004F08BF5FEA40
:10057000500E50F1000041EB045170BD06F00046F2
:1005800046EA010140EA020081EA0301B4EB5C049F
:10059000C2BFD4EB0C0541EA045170BD41F4801197
:1005A0004FF0000E013C00F3AB8014F1360FDEBFBC
:1005B000002001F0004170BDC4F10004203C35DA98
:1005C0000C341BDC04F11404C4F1200500FA05F31B
:1005D00020FA04F001FA05F240EA020001F00042BC
:1005E00021F0004110EBD37021FA04F642EB060132
:1005F0005EEA430E08BF20EAD37070BDC4F10C045C
:10060000C4F1200500FA04F320FA05F001FA04F21F
:1006100040EA020001F0004110EBD37041F100010B
:100620005EEA430E08BF20EAD37070BDC4F1200516
:1006300000FA05F24EEA020E20FA04F301FA05F27E
:1006400043EA020321FA04F001F0004121FA04F226
:1006500020EA020000EBD3705EEA430E08BF20EAF6
:10066000D37070BD94F0000F0FD101F00046400030
:1006700041EB010111F4801F08BF013CF7D041EAB2
:10068000060195F0000F18BF704703F000465200B6
:1006900043EB030313F4801F08BF013DF7D043EA87
:1006A0000603704794EA0C0F0CEA135518BF95EA3D
:1006B0000C0F0CD050EA410618BF52EA4306D1D1C4
:1006C00081EA030101F000414FF0000070BD50EAE3
:1006D000410606BF1046194652EA430619D094EA6D
:1006E0000C0F02D150EA013613D195EA0C0F05D157
:1006F00052EA03361CBF104619460AD181EA0301AB
:1007000001F0004141F0FE4141F470014FF0000062
:1007100070BD41F0FE4141F4780170BD70B54FF0FD
:10072000FF0C4CF4E06C1CEA11541DBF1CEA13557D
:1007300094EA0C0F95EA0C0F00F0A7F8A4EB05045F
:1007400081EA030E52EA03354FEA013100F0888056
:100750004FEA03334FF0805545EA131343EA12631F
:100760004FEA022245EA111545EA10654FEA0026D4
:100770000EF000419D4208BF964244F1FD0404F58D
:10078000407402D25B084FEA3202B61A65EB0305E9
:100790005B084FEA32024FF480104FF4002CB6EBA6
:1007A000020E75EB030E22BFB61A754640EA0C0026
:1007B0005B084FEA3202B6EB020E75EB030E22BF66
:1007C000B61A754640EA5C005B084FEA3202B6EBA7
:1007D000020E75EB030E22BFB61A754640EA9C0066
:1007E0005B084FEA3202B6EB020E75EB030E22BF36
:1007F000B61A754640EADC0055EA060E18D04FEAF4
:10080000051545EA16754FEA06164FEAC30343EA93
:1008100052734FEAC2025FEA1C1CC0D111F4801F60
:100820000BD141EA00014FF000004FF0004CB6E759
:1008300011F4801F04BF01430020B4F1FD0C88BFF8
:10084000BCF5E06F3FF6AFAEB5EB030C04BFB6EB03
:10085000020C5FEA500C50F1000041EB045170BDF6
:100860000EF0004E4EEA113114EB5C04C2BFD4EB23
:100870000C0541EA045170BD41F480114FF0000EA7
:10088000013C90E645EA060E8DE60CEA135594EA23
:100890000C0F08BF95EA0C0F3FF43BAF94EA0C0F26
:1008A0000AD150EA01347FF434AF95EA0C0F7FF49B
:1008B00025AF104619462CE795EA0C0F06D152EAEF
:1008C00003353FF4FDAE1046194622E750EA4106D3
:1008D00018BF52EA43067FF4C5AE50EA41047FF4E4
:1008E0000DAF52EA43057FF4EBAE12E74FF0FF3C49
:1008F00006E000BF4FF0010C02E000BF4FF0010C1A
:100900004DF804CD4FEA410C7FEA6C5C4FEA430C92
:1009100018BF7FEA6C5C1BD001B050EA410C0CBFE1
:1009200052EA430C91EA030F02BF90EA020F002043
:10093000704710F1000F91EA030F58BF994208BFAA
:1009400090422CBFD8176FEAE37040F00100704767
:100950004FEA410C7FEA6C5C02D150EA013C07D1BE
:100960004FEA430C7FEA6C5CD6D152EA033CD3D009
:100970005DF8040B704700BF8446104662468C4603
:100980001946634600E000BF01B5FFF7B7FF002836
:1009900048BF10F1000F01BD4DF808EDFFF7F4FF5F
:1009A0000CBF012000205DF808FB00BF4DF808EDEA
:1009B000FFF7EAFF34BF012000205DF808FB00BF0D
:1009C0004DF808EDFFF7E0FF94BF012000205DF82F
:1009D00008FB00BF4DF808EDFFF7CEFF94BF0120E4
:1009E00000205DF808FB00BF4DF808EDFFF7C4FFDD
:1009F00034BF012000205DF808FB00BF4FEA410230
:100A000012F5001215D211D56FF47873B3EB625260
:100A100012D94FEAC12343F0004343EA505311F087
:100A2000004F23FA02F018BF404270474FF0000019
:100A3000704750EA013005D111F0004008BF6FF057
:100A4000004070474FF00000704700BF4A0011D2CD
:100A500012F5001211D20DD56FF47873B3EB625218
:100A60000ED44FEAC12343F0004343EA505323FA24
:100A700002F070474FF00000704750EA013002D199
:100A80004FF0FF3070474FF00000704753B94AB93C
:100A9000002908BF00281CBF4FF0FF314FF0FF3086
:100AA00000F0AEB9ADF1080C6DE904CE00F03EF8EF
:100AB000DDF804E0DDE9022304B0704738B50546EF
:100AC0000C460022002328462146FFF76FFF28B975
:100AD00028462146BDE8384000F00AB8284604F10F
:100AE000004100F005F8404261EB410138BD00BF14
:100AF000D0B500220B4B06460F46FFF7E5FCFFF78B
:100B0000A5FF0446FFF766FC0022074BFFF7DCFC5D
:100B100002460B4630463946FFF71EFBFFF796FFAD
:100B20002146D0BD0000F03D0000F0412DE9F04726
:100B3000089E0D4604468846002B4DD18A429446B5
:100B400068D9B2FA82F252B101FA02F3C2F120017D
:100B500020FA01F10CFA02FC41EA030894404FEA42
:100B60001C41B8FBF1F71FFA8CFE01FB178807FB4D
:100B70000EF0230C43EA084398420AD91CEB030306
:100B800007F1FF3580F01E81984240F21B81023F41
:100B900063441B1AB3FBF1F001FB103300FB0EFEA4
:100BA000A4B244EA0344A6450AD91CEB040400F1AC
:100BB000FF3380F00981A64540F206816444023883
:100BC0000021A4EB0E0440EA07401EB10023D440EC
:100BD000C6E90043BDE8F0878B4208D9002E00F03B
:100BE000EE800021C6E900050846BDE8F087B3FAAB
:100BF00083F100294AD1AB4202D3824200F2FC8049
:100C0000841A65EB030301209846002EE2D0C6E962
:100C10000048DFE702B9FFDEB2FA82F2002A40F0B4
:100C20009180A1EB0C0001214FEA1C471FFA8CFEBA
:100C3000B0FBF7F307FB1300250C45EA00450EFB5C
:100C400003F0A84208D91CEB050503F1FF3802D2D6
:100C5000A84200F2CE8043462D1AB5FBF7F007FB01
:100C600010550EFB00FEA4B244EA0544A64508D97F
:100C70001CEB040400F1FF3502D2A64500F2B68059
:100C80002846A4EB0E0440EA03409EE7C1F120078A
:100C90008B4022FA07FC4CEA030C25FA07FA4FEACC
:100CA0001C49BAFBF9F820FA07F309FB18AA8D4092
:100CB0001FFA8CFE1D4300FA01F308FB0EF02C0C0A
:100CC00044EA0A44A04202FA01F20BD91CEB0404E4
:100CD00008F1FF3A80F08880A04240F28580A8F1B8
:100CE00002086444241AB4FBF9F009FB104400FB29
:100CF0000EFEADB245EA0444A64508D91CEB040437
:100D000000F1FF356CD2A6456AD90238644440EA46
:100D10000840A0FB0295A4EB0E04AC42C846AE46C8
:100D200056D353D0002E69D0B3EB080264EB0E0407
:100D300022FA01F304FA07F71F43CC40C6E9007416
:100D4000002147E70CFA02FCC2F1200125FA01F369
:100D50004FEA1C4720FA01F195400D43B3FBF7F130
:100D600007FB11331FFA8CFE280C40EA034001FBFD
:100D70000EF3834204FA02F408D91CEB000001F1DF
:100D8000FF382FD283422DD902396044C01AB0FBFC
:100D9000F7F307FB1300ADB245EA004503FB0EF085
:100DA000A84208D91CEB050503F1FF3816D2A8426A
:100DB00014D9023B6544281A43EA014138E7314619
:100DC000304607E72F46E4E61846F9E64B45A9D238
:100DD000B9EB020865EB0C0E0138A3E74346EAE7DE
:100DE000284694E74146D1E7D0467BE76444023881
:100DF00047E7023B65442FE7084606E73146E9E648
:100E0000704700BF80B582B000AF7860134B1B689D
:100E10007A681A60114B1B681868104B1B68043302
:100E20000122194609F055FA0C4B1B6803F5805353
:100E30000022A3F86620094B1B6803F580530022AB
:100E4000A3F86820054B1B6803F580530022A3F824
:100E50006A2000BF0837BD4680BD00BF00000020EB
:100E600080B400AF0A4B1B6803F58053B3F86820C9
:100E7000074B1B6803F58053B3F866309A4201D0E4
:100E8000012300E000231846BD4680BC704700BF28
:100E90000000002080B584B000AF7860FFF7E0FF6D
:100EA0000346002B37D01E4B1A681D4B1B6803F5F9
:100EB0008053B3F8683003F500635B001344DA88AD
:100EC0007B681A80164B1A68154B1B6803F5805314
:100ED000B3F868301B0213440533FB60104B1B68EA
:100EE00003F58052B2F86820013292B203F58053C4
:100EF000A3F868200A4B1B6803F58053B3F86830E9
:100F00000F2B06D9064B1B6803F580530022A3F86C
:100F10006820FB6800E0002318461037BD4680BDFE
:100F20000000002080B483B000AF0023FB800023CA
:100F3000BB802E4B1A682D4B1B6803F58053B3F80A
:100F4000683003F502635B0013440022DA8017E087
:100F5000BB880133BB8000BF244B1A68234B1B683E
:100F600003F58053B3F868301846FB88591CF980A4
:100F70001946030213440B4405331B78202BEBD88E
:100F80001A4B1968194B1B6803F58053B3F8683086
:100F90001A46FB8812020A44134405331B78202B9F
:100FA0000FD9124B1A68114B1B6803F58053B3F825
:100FB000683003F500635B001344DB88FA889A42CB
:100FC000C6D30A4B1A68094B1B6803F58053B3F864
:100FD000683003F501635B001344BA88DA80BB888C
:100FE00018460C37BD4680BC704700BF000000208B
:100FF00080B485B000AF7860274B1A68264B1B6819
:1010000003F58053B3F8683003F502635B001344C3
:10101000DB88BB81BB89FB8102E0FB890133FB815B
:101020001D4B19681C4B1B6803F58053B3F86830DF
:101030001A46FB8912020A44134405331B78202BFD
:10104000EBD8154B1A68144B1B6803F58053B3F8A3
:1010500068301846FB89013399B200F502635B00E2
:1010600013440A46DA80FA89BB89D31A9AB27B689C
:101070001A80094B1A68084B1B6803F58053B3F8B4
:1010800068301946BB8909020B44134405331846DE
:101090001437BD4680BC704700000020B0B582B058
:1010A00000AF7860434B1B681B791F2B37D8414B2F
:1010B0001B68404A12683F49096801F58051B1F840
:1010C0006610084603F58053B3F86A1000F5006314
:1010D0005B0013440A46DA80364B1B6803F58053E5
:1010E0000022A3F86A20334B1B6803F58052B2F844
:1010F0006620013292B203F58053A3F866202D4B8F
:101100001B6803F58053B3F866300F2B43D9294B86
:101110001B6803F580530022A3F866203BE0254BB3
:101120001B6803F58053B3F86A30FE2B33D8214B8C
:101130001868204B19681F4B1B6803F58053B3F8E0
:1011400066301D461B4B1B6803F58052B2F86A20BF
:10115000541CA4B203F58053A3F86A4014460279E4
:101160002B020B44234405331A70124B1A68114B9F
:101170001B6803F58053B3F8663018460D4B1B68A7
:1011800003F58053B3F86A301946030213440B4445
:10119000053300221A70074B1B681868054B1B6843
:1011A00004330122194609F094F800BF0837BD4600
:1011B000B0BD00BF0400002080B582B000AF7860F1
:1011C000064B1B681868391D6423012208F0EFFFE5
:1011D0007B6818460837BD4680BD00BF0800002068
:1011E00080B586B000AF0023FB750023BB7529E0F6
:1011F00000237B7520E07B7D204A52F8233093F852
:101200004430BA7D9A4214D17B7D1C4A52F8233077
:1012100093F84230012B0CD17A7DFB7D591CF97576
:101220001946164B53F822208B0018333B4443F8E1
:10123000182C7B7D01337B757B7D042BDBD9BB7D3B
:101240000133BB75BB7DFF2BD2D100233B750BE077
:101250003B7D9B0018333B4453F8183C184600F084
:101260000FF83B7D01333B753A7DFB7D9A42EFD30E
:1012700000BF00BF1837BD4680BD00BF3815002035
:101280002DE9B04F8AB000AFF860FB68D3E90623C0
:1012900010461946FFF7E2F8FB68D3E90E23FFF783
:1012A00013F902460B46C7E90023FB68B3F8503038
:1012B0001846FFF79FF802460B46D7E90001FFF7F3
:1012C00003F902460B4610461946FFF711FC024689
:1012D0000B46C7E90423D7E904014FF064024FF03D
:1012E0000003FFF7D3FB02460B46C7E90423D7E907
:1012F000042375A1D1E90001FFF7C8FB02460B46A4
:10130000C7E90423FB6893F8413019466A4809F09D
:101310006BFCFB681988FB6893F843301A466748F2
:1013200008F0ADFAFB6893F84030002B1ED0FB6844
:101330001B881946614808F0BAFA17E0FB685B8819
:1013400019465E4808F0B3FA00237B6204E000BF50
:1013500000BF7B6A01337B627B6A0022984691461C
:10136000D7E90423904579EB0303F0D3FB689B880E
:101370001946534808F06CFA0346002BDED0FB6890
:101380001B8819464D4808F092FA00233B6204E09E
:1013900000BF00BF3B6A01333B623B6A494A93424C
:1013A000F6D9D7E904014FF000024FF000038B009B
:1013B00043EA90738200C7E9042317E0FB685B8867
:1013C00019463E4808F073FA0023FB6104E000BFB1
:1013D00000BFFB690133FB61FB6900221C46154617
:1013E000D7E90423944275EB0303F0D3FB689B8891
:1013F0001946334808F02CFA0346002BDED10023AF
:10140000BB6104E000BF00BFBB690133BB61BB69C6
:101410002C4A9342F6D9FB68D3E90623F968C1E95F
:101420000823F9684FF000024FF00003C1E90223DE
:10143000FB68D3E91201FB68D3E90E23FFF744F8F8
:1014400002460B4610461946FFF738FB02460B468C
:10145000F968C1E90423FB6893F84330012B0AD1F2
:10146000FB68D3E904230021D2F1000A61EB030BEE
:10147000FB68C3E904AB01F0A9FBFB68D3E91601E3
:10148000FB68D3E90E23FFF71FF802460B46104610
:101490001946FFF713FB02460B46F968C1E904231E
:1014A000FB68D3E90423F968C1E9022300BF2837A8
:1014B000BD46BDE8B08F00BFCCBC0008000C0140A9
:1014C000000801407F841E00F05A14000000000054
:1014D00080B500AF07F0F4FB00F00CF800F07AF8EC
:1014E00000F04EF83C2007F04DFC00F099FE00F0B3
:1014F000F2F8FCE780B590B000AF07F1180328229E
:101500000021184609F068FB3B1D00221A605A6052
:101510009A60DA601A610123BB614FF48033FB618A
:1015200000233B620123BB6202237B634FF48033C1
:10153000BB634FF4E013FB6307F11803184608F090
:10154000CFF90346002B01D000F0C0F80F237B60D9
:101550000223BB600023FB604FF480633B610023E8
:101560007B613B1D0221184608F03CFC0346002B22
:1015700001D000F0ABF800BF4037BD4680BD000091
:1015800080B500AF114B124A1A60104B4FF416424F
:101590005A600E4B00229A600C4B0022DA600B4B13
:1015A00000221A61094B0C225A61084B00229A61F1
:1015B000064B0022DA61054808F0ACFD0346002B1B
:1015C00001D000F083F800BF80BD00BF0C110020E7
:1015D0000038014080B588B000AF07F11003002249
:1015E0001A605A609A60DA60344B9B69334A43F060
:1015F00010039361314B9B6903F01003FB60FB68A0
:101600002E4B9B692D4A43F0200393612B4B9B6922
:1016100003F02003BB60BB68284B9B69274A43F05B
:1016200004039361254B9B6903F004037B607B6893
:10163000224B9B69214A43F0080393611F4B9B692E
:1016400003F008033B603B6800224FF400511C4844
:1016500008F015F900224FF63B411A4808F00FF93F
:101660004FF400533B6101237B610023BB610223E4
:10167000FB6107F110031946114807F065FF3F238E
:101680003B6100237B610023BB6107F11003194616
:101690000D4807F059FF4FF63B433B6101237B6147
:1016A0000023BB610223FB6107F1100319460548C3
:1016B00007F04AFF00BF2037BD4680BD0010024042
:1016C00000100140000C01400008014080B400AF50
:1016D00072B600BFFEE780B500AFFFF7C1FB03465F
:1016E000002B01D000F002F800BF80BD2DE9B04F03
:1016F000A0B002AFFFF716FC034687F8533007F19E
:1017000050031846FFF774FC7867A14800F056FFB5
:10171000002387F87330B0E0B7F85030796F18467F
:1017200000F0B1FE0346002B00F09C80B7F850009B
:1017300007F1480107F14F0207F1400300930B4600
:10174000796F00F0F9FD97F84F30472B07D1BB6C4C
:101750009BB28F4A53808E4A0123137182E097F81F
:101760004F304D2B07D1BB6C9BB2894AD380884A3E
:101770000123137276E097F84F30462B0AD1BB6CE9
:10178000DA171C461546824BC3E90445804A0123FB
:10179000137667E097F84F30582B0FD097F84F30FB
:1017A000592B0BD097F84F305A2B07D097F84F3062
:1017B000422B03D097F84F30432B53D1744B5B7EB1
:1017C000D7E91001724A0433DB001344C3E9000176
:1017D0006F4B5B7E1A4697F84F106D4B1A440B46C1
:1017E00082F870306A4B5B7E1A46694B1A440123BB
:1017F00082F87A30002387F8723022E0644B5B7EF7
:101800001A46634B134493F8701097F87220614B9B
:1018100053F8223093F8413099420DD197F8722055
:101820005B4B5B7E18465B4B53F82210584A00F125
:1018300020039B001344596097F87230013387F8F6
:10184000723097F87230042BD8D9514B5B7E01333C
:10185000DBB24F4A53764E4B5B7E092B02D94C4A82
:101860000023537607F150031846FFF7C1FB786752
:1018700097F87330013387F8733097F8732097F82F
:1018800053309A42FFF448AF414B5B88002B04D0A1
:101890003F4B5B88012B40F0F2813D4B1B7A002BC4
:1018A00040F0ED813A4B5B7E002B00F0E881384B35
:1018B000D3E90423134304D1354B5B88002B40F05C
:1018C000A284002387F87130002387F8703000234A
:1018D00087F86F30D4E02E4B5B88002B0FD097F841
:1018E0006F302B4A20339B0013445B68D3E9060119
:1018F000274BD3E90423904271EB030312D297F8EC
:101900006F30234A20339B001344586897F86F3098
:101910001F4A20339B0013445968D0E90623C1E9CC
:1019200008230BE097F86F30194A20339B001344CB
:101930005968174BD3E90423C1E90823144B1B78DA
:10194000002B29D197F86F30114A0433DB00134480
:10195000D3E9000197F86F300D4A20339B00134400
:101960005B68D3E90E23FEF7AFFD02460B46104637
:10197000194697F86F30064A20339B0013445C6881
:10198000FFF79CF802460B46C4E904233DE000BF84
:10199000501500203815002097F86F30B24A2033D8
:1019A0009B0013445B68D3E9042310461946FEF7F5
:1019B0005DFD04460D4697F86F30AB4A0433DB00FB
:1019C0001344D3E9000197F86F30A74A20339B00F6
:1019D00013445B68D3E90E23FEF776FD02460B46FF
:1019E00020462946FEF7BAFB02460B46104619462A
:1019F00097F86F309C4A20339B0013445C68FFF7D4
:101A00005DF802460B46C4E9042397F86F30964A06
:101A100020339B0013445B6893F84130582B0AD065
:101A200097F86F30904A20339B0013445B6893F81B
:101A30004130592B04D197F87130013387F8713058
:101A400097F86F30884A20339B0013445B6893F803
:101A500041305A2B0AD097F86F30834A20339B00CD
:101A600013445B6893F84130422B04D197F87030EF
:101A7000013387F8703097F86F30013387F86F3093
:101A8000794B5A7E97F86F309342FFF424AF97F862
:101A90007130012B40F2EE80744BD3E90201734B9D
:101AA000D3E90423841ABC6261EB0303FB62D7E928
:101AB0000A34C7E918346E4BD3E902016C4BD3E901
:101AC0000423841A3C6261EB03037B62D7E9083488
:101AD000C7E91634D7E91823002B0BDAD7E9182306
:101AE00000215042B86161EB0303FB61D7E9063482
:101AF000C7E91834D7E91623002B0BDAD7E91623E8
:101B000000215042386161EB03037B61D7E9043463
:101B1000C7E91634D7E91801D7E9162382428B4169
:101B20004CDAD7E9164522462B464FF000004FF01D
:101B30000001990041EA9271900002460B4612EBB7
:101B4000040A43EB050B1AEB0A03BB604BEB0B03D8
:101B5000FB60D7E902AB50465946D7E918238242C9
:101B60008B412BDA424BD3E90801D7E9162302FB5C
:101B700001F500FB03F42C44A0FB0232FA63BB63C3
:101B8000FB6BE318FB63D7E90E01FEF767FC044625
:101B90000D46D7E91801FEF769FC02460B462046C0
:101BA0002946FEF7BBFD02460B4610461946FEF7D6
:101BB0009FFF02460B462E49C1E90823D7E91623A9
:101BC000D7E91801904271EB030353DAD7E91845BE
:101BD00022462B464FF000004FF00001990041EAE9
:101BE0009271900002460B4612EB040843EB050984
:101BF00018EB08033B6049EB09037B60D7E90089D8
:101C000040464946D7E9162382428B4132DA174BC8
:101C1000D3E90801D7E9182302FB01F500FB03F41F
:101C20002C44A0FB02327A633B637B6BE3187B633B
:101C3000D7E90C01FEF712FC04460D46D7E9160160
:101C4000FEF714FC02460B4620462946FEF766FDC9
:101C500002460B4610461946FEF74AFF02460B465F
:101C60000249C1E9082305E0501500205011002069
:101C70001812002000F0AAFF00F0EAFEC3E2B84B01
:101C80001B79002B66D0B64B5B885C2B1AD05C2B83
:101C900062DC5B2B0BD05B2B5EDC1C2B0DD05A2B3C
:101CA0005AD1AF4B00221A7000F0D2FE55E0AC4B77
:101CB00001221A7000F0CCFE4FE0FFF791FA00F01D
:101CC000C7FE4AE0002387F857303CE097F85730CA
:101CD000A34A0433DB001344D3E9000197F85730DB
:101CE0009F4A20339B0013445B68D3E90E23FEF721
:101CF000EBFB02460B461046194697F85730984AB8
:101D000020339B0013445C68FEF7D8FE02460B4666
:101D1000C4E9022397F85730914A20339B001344BB
:101D20005A6897F857308E4920339B000B44596806
:101D300002F10803D3E90023C1E9042397F85730DF
:101D4000013387F85730864B5B7E97F857209A42CD
:101D5000BCD302E000BF00E000BF814B1B7A002B28
:101D600000F053827E4BDB8840F2E732934240D052
:101D7000B3F57A7F80F2EF8040F2E632934200F0D2
:101D8000E28040F2E632934200F3E580642B2DD0EE
:101D9000642B00F3E0805B2B12D05B2B00F3DB8025
:101DA0005A2B07D05A2B00F3D680112B16D0122BAA
:101DB0000CD0D0E06A4B00221A7000F049FE25E2F8
:101DC000674B01221A7000F043FE1FE2002220211F
:101DD000644807F054FD00F03BFE17E20122202189
:101DE000604807F04CFD00F033FE0FE200F030FEDB
:101DF0000CE25D4808F092FF25215C4808F0F4FEF3
:101E0000002387F856303DE097F85630584A52F88C
:101E1000233093F84130194697F85630544A52F817
:101E20002330D3E90623104697F85630504A52F82B
:101E30002330D3E90A23134602464E4808F0D4FE65
:101E400097F856304A4A52F82330D3E90E23104609
:101E5000194600F065FB97F85630454A52F8233092
:101E60001B6B194697F85630414A52F8233093F8C5
:101E700040301A46404808F0B7FE97F85630013314
:101E800087F8563097F85630042BBDD925213B48AA
:101E900008F0AAFE002387F855304DE097F855303A
:101EA000334A52F8233093F84130194697F85530A9
:101EB0002F4A52F8233093F84230184697F855309D
:101EC0002B4A52F8233093F843301C4697F855308C
:101ED000274A52F82330B3F8503000932346024685
:101EE000274808F081FE97F85530214A52F82330F0
:101EF000D3E912231046194600F012FB7C2008F0AB
:101F00008BFE97F855301A4A52F82330D3E916233E
:101F10001046194600F004FB97F85530144A52F861
:101F2000233093F844301946164808F05DFE97F8C0
:101F30005530013387F8553097F85530042BADD91B
:101F400000F086FD62E100F067FC00F023FD0E4822
:101F500008F0E4FE5AE1002387F854304BE100BF5B
:101F600050150020000C0140E0BC0008F8BC00083F
:101F70003815002038BD00084CBD000860BD0008C1
:101F8000A0BD0008BCBD0008C8BD0008A34BDB888D
:101F9000A3F57A730F2B00F2288101A252F823F0E7
:101FA000E11F00080D200008392000085D2000080E
:101FB00085200008EB210008EB210008EB21000838
:101FC000EB210008EB210008C720000809210008C8
:101FD0004B210008772100089B210008BF21000841
:101FE00097F854308D4A0433DB001344D3E90001E1
:101FF00097F85430894A20339B0013445C68FEF7FD
:1020000077FD02460B46C4E90623EFE097F854300B
:10201000824A0433DB001344D3E9000197F85430BB
:102020007E4A20339B0013445C68FEF761FD024644
:102030000B46C4E90A23D9E097F8542097F85430A6
:10204000764920339B000B4459687448131DDB000C
:102050000344D3E90023C1E90E23C7E097F85430C5
:102060006E4A0433DB001344D3E9000197F854307F
:102070006A4A20339B0013445C68FEF7E7FC034682
:102080002363B3E097F85430644A0433DB0013440D
:10209000D3E9000101231C464FF000024FF000037A
:1020A000FEF7A2FC0346002B01D100231C46E1B23F
:1020B00097F85430594A20339B0013445B680A4612
:1020C00083F8402092E097F85430544A0433DB0000
:1020D0001344D3E9000101231C464FF000024FF0E6
:1020E0000003FEF781FC0346002B01D100231C46B0
:1020F000E1B297F85430494A20339B0013445B689F
:102100000A4683F8422071E097F85430434A04337A
:10211000DB001344D3E9000101231C464FF0000209
:102120004FF00003FEF760FC0346002B01D10023B3
:102130001C46E1B297F85430384A20339B001344D0
:102140005B680A4683F8432050E097F85430334ADE
:102150000433DB001344D3E9000197F854302F4ACD
:1021600020339B0013445C68FEF770FC03469BB26F
:10217000A4F850303AE097F8542097F854302749A3
:1021800020339B000B4459682448131DDB00034493
:10219000D3E90023C1E9122328E097F8542097F8E7
:1021A00054301E4920339B000B4459681B48131DB3
:1021B000DB000344D3E90023C1E9162316E097F8B6
:1021C0005430164A0433DB001344D3E9000197F876
:1021D0005430124A20339B0013445C68FEF736FCEF
:1021E0000346DBB284F8443000E000BF97F8543077
:1021F000013387F85430094B5B7E97F854209A429C
:10220000FFF4C4AE02E000BF00E000BF0020FEF714
:1022100041FE00BF7837BD46BDE8B08F50150020A5
:1022200080B500AF01222021394807F028FB39484A
:10223000FEF7E8FD384808F071FD384B384A1A605F
:10224000374B01225A80364B02221A80344B01222E
:102250009A80334B582283F84120304B314A5A60E0
:10226000304B4FF480625A802E4B4FF400621A803C
:102270002C4B02229A802B4B592283F84120274B6A
:10228000294A9A60284B4FF480525A80264B4FF4CB
:1022900000521A80244B04229A80234B5A2283F83E
:1022A00041201E4B214ADA60204B08225A801F4BE6
:1022B00010221A801D4B08229A801C4B422283F860
:1022C0004120164B1A4A1A61194B4FF480425A802A
:1022D000174B4FF400421A80154B10229A80144B72
:1022E000432283F84120134800F068F900F09CF97C
:1022F00000F0D2F90A4B93F84430FF2B05D100F0DF
:10230000F3FB00F089FA00F045FB00BF80BD00BF81
:10231000000C01400C110020D4BD0008381500202D
:102320005011002018120020E0120020A8130020F5
:1023300070140020501500202DE9B04F86B000AF7A
:10234000B9607A603B600346FB81BB681A787B68A2
:102350001A700023FB750123BB75BB6801331B7822
:102360002D2B04D0BB6801331B782B2B08D1022303
:10237000BB75BB6801331B782D2B01D10123FB7585
:1023800000233B613B6800221A60B96B4FF00002EA
:102390004FF00003C1E900235AE0BB7DBA68134443
:1023A0001B782E2B04D101233B61BB7D0133BB7510
:1023B000BB7D9BB2FA899A424AD93B69002B1DD159
:1023C0003B681A6813469B0013445B001A463B683F
:1023D0001A603B681A68BB7DB9680B441B78303BB8
:1023E0001A443B681A603B681B681846FEF702F8FF
:1023F00002460B46B96BC1E9002326E03A69134651
:102400009B0013445B003B61BB6BD3E90089BB7D40
:10241000BA6813441B78303B1846FDF7EBFF824641
:102420008B463869FDF7D6FF02460B4650465946A3
:10243000FEF774F902460B4640464946FDF78EFE0C
:1024400002460B46B96BC1E90023BB7D0133BB7566
:10245000BB7D9BB2FA899A429FD8FB7D012B0DD19F
:102460003B681B685A423B681A60BB6BD3E9002388
:10247000144683F00045BB6BC3E9004500BF183725
:10248000BD46BDE8B08F80B485B000AF034639606B
:10249000FB800023FB733B681B78402B33D93B68E0
:1024A0001B785A2B2FD83B681B78FB730123BB8109
:1024B0003B6801331B782D2B04D03B6801331B781C
:1024C0002B2B1CD10223BB8119E0BB893A68134432
:1024D0001B782F2B05D9BB893A6813441B78392BFD
:1024E0000AD9BB893A6813441B782E2B01D00023EC
:1024F0000FE0BB890133BB81BB890133BB81BA8942
:10250000FB889A42E1D3FB7B002B01D0012300E042
:10251000002318461437BD4680BC704700000000F9
:10252000B0B582B000AFC7E900014FF000024FF034
:102530000003D7E90001FEF739FA0346002B08D063
:102540003C687B6883F00045C7E900452D2008F012
:1025500063FBD7E90001FEF751FA0446D7E9000111
:10256000FEF74CFA03461846FDF744FF02460B46B9
:10257000D7E90001FDF7F0FD02460B46104619466B
:102580000BA3D3E90023FDF79FFF02460B4610463D
:102590001946FEF733FA03461A462146064808F064
:1025A00023FB00BF0837BD46B0BD00BFAFF30080BE
:1025B0000000000080842E410CBE000880B485B06D
:1025C00000AF78607B6800221A717B6800221A7263
:1025D0007B6800221A767B6800225A760023FB7300
:1025E00019E0FB7B7A680433DB00D1184FF000025E
:1025F0004FF00003C1E90023FB7B7A6813440022FB
:1026000083F87020FB7B7A681344002283F87A20D9
:10261000FB7B0133FB73FB7B092BE2D900BF00BFBF
:102620001437BD4680BC704780B483B000AF002330
:10263000FB710EE0FB7903F1007303F5C0439B00CF
:102640001A46FB791268124941F82320FB790133BD
:10265000FB71FB79182BEDD91923BB710FE0BB7906
:1026600003F1007303F5C0439B001A46BB79193B85
:102670001268084941F82320BB790133BB71BB794B
:102680003B2BECD900BF00BF0C37BD4680BC704768
:1026900000160020641600202DE9F04383B000AF3F
:1026A0000023FB71A1E0FB79574A52F82310FB7914
:1026B000564A52F8233000220C461546C3E9064517
:1026C000FB790533504A52F82310FB794F4A52F8F0
:1026D0002330002288469146C3E90A89FB790A33F0
:1026E000494A52F823301846FDF774FEFB79474AF1
:1026F00052F8236042A3D3E90023FEF70FF8024605
:102700000B46C6E90E23FB7903F10F02FB793F4923
:1027100051F823303C4951F822201A63FB791433D5
:10272000394A52F82310FB79384A52F82330CAB29A
:1027300083F84020FB79364A52F82310FB79334A5C
:1027400052F82330CAB283F84220FB790533304A6D
:1027500052F82310FB792D4A52F82330CAB283F87D
:102760004320FB790A332A4A52F82310FB79274A7F
:1027700052F823308AB2A3F85020FB790F33244A51
:1027800052F82320FB79214951F823601046FDF7C8
:1027900021FE02460B46C6E91223FB7914331C4A7C
:1027A00052F82330A3F5F423A3F590731846FDF7F0
:1027B00011FEFB79154A52F8236011A3D3E90023D7
:1027C000FDF7ACFF02460B46C6E91623FB79193329
:1027D0000F4A52F82310FB790C4A52F82330CAB240
:1027E00083F84420FB790133FB71FB79042B7FF6DE
:1027F0005AAF00BF00BF0C37BD46BDE8F08300BF35
:102800000000000080842E410016002038150020B2
:10281000641600200000000090B583B000AF0023D4
:10282000FB71A1E0FB79584A52F82330D3E9062323
:10283000F979564B43F82120FB79534A52F823305B
:10284000D3E90A23F9790531504B43F82120FB796C
:102850004D4A52F82330D3E90E0149A3D3E90023AE
:10286000FDF732FE02460B4610461946FB7903F18E
:102870000A04FEF7EBF80346444A42F82430FB7999
:10288000414A52F82320FB790F33126B3F4941F83C
:102890002320FB793C4A52F8233093F84020FB79FF
:1028A00014331146394A42F82310FB79364A52F85C
:1028B000233093F84220FB791146354A42F8231021
:1028C000FB79314A52F8233093F84320FB790533E2
:1028D00011462F4A42F82310FB792B4A52F8233035
:1028E000B3F85020FB790A331146294A42F82310E5
:1028F000FB79254A52F82330D3E91223F97901F103
:102900000F0410461946FEF7A1F80346204A42F884
:102910002430FB791C4A52F82330D3E9160118A35E
:10292000D3E90023FDF7D0FD02460B4610461946B9
:10293000FEF78CF80146FB7903F11402A1F5F423AC
:10294000A3F59073124941F82230FB790E4A52F8F0
:10295000233093F84420FB79193311460C4A42F88E
:102960002310FB790133FB71FB79042B7FF65AAFFF
:1029700000BF00BF0C37BD4690BD00BFAFF3008065
:102980000000000080842E41381500200016002031
:10299000641600202DE9B04386B000AF06F044FC79
:1029A00000233B60264BBB600323FB6007F1100252
:1029B0003B461146184606F01FFD0023FB7515E047
:1029C000FB7D03F1007303F5C0439B001946FB7DBB
:1029D0001C4A52F8233000229846914642464B4604
:1029E000022006F0B1FBFB7D0133FB75FB7D182B4C
:1029F000E6D91923BB7516E0BB7D03F1007303F51F
:102A0000C0439B001946BB7D193B0F4A52F8233047
:102A100000221C46154622462B46022006F094FB57
:102A2000BB7D0133BB75BB7D3B2BE5D906F022FC9A
:102A3000064808F073F900BF1837BD46BDE8B083FB
:102A400000800108001600206416002028BE00083F
:102A500080B582B000AF1E4B1B78002B03D11D4800
:102A600008F0C2F802E01C4808F0BEF80023FB7131
:102A700024E0FB79194A52F8233093F84130194683
:102A8000174808F0B1F8FB79144A52F82330D3E91B
:102A9000022310461946FDF7E9FCFB790F4A52F86C
:102AA0002330D3E90E23FDF739FE02460B461046CC
:102AB0001946FFF735FDFB790133FB71FB79042BD8
:102AC000D7D9084808F02AF900BF0837BD4680BDAD
:102AD000501500207CBE000884BE00083815002078
:102AE0008CBE000890BE000880B483B000AF002305
:102AF000FB715BE0FB79324A52F8231042F210720C
:102B00004FF00003C1E90623FB792D4A52F8231048
:102B100041F288324FF00003C1E90A23FB79284AC9
:102B200052F8233002221A63FB79254A52F8231007
:102B30004FF00002234BC1E90E23FB79204A52F8E3
:102B40002330002283F84020FB791D4A52F82330BD
:102B5000002283F84220FB79194A52F823300022E0
:102B600083F84320FB79164A52F82330002283F879
:102B70004420FB79124A52F823104FF00002124B06
:102B8000C1E91223FB790E4A52F823302322A3F81D
:102B90005020FB790A4A52F823104FF000024FF000
:102BA0000003C1E91623FB790133FB71FB79042B88
:102BB000A0D900BF00BF0C37BD4680BC704700BF26
:102BC000381500200000F03F0000344090B589B077
:102BD00002AF0023FB750023BB751FE0BB7D384AA5
:102BE00052F82330D3E90201BB7D354A52F8233035
:102BF000D3E90423994208BF90420CD0BA7DFB7DF3
:102C0000591CF97519462E4B53F822208B001833A6
:102C10003B4443F8182CBB7D0133BB75BB7D042BB3
:102C2000DCD900237B750BE07B7D9B0018333B4494
:102C300053F8183C184600F045F87B7D01337B754E
:102C40007A7DFB7D9A42EFD3FB7D013B042B31D88B
:102C500001A252F823F000BF6D2C0008772C000869
:102C6000852C0008932C0008A12C00083B6818460E
:102C700000F0A4FA1FE03B687A681146184600F09D
:102C800075FD18E03B687968BA68184601F044FBA6
:102C900011E038687968BA68FB6802F00BFC0AE05A
:102CA00038687968BA68FC683B690093234603F08A
:102CB000C7FF00E000BF00BF1C37BD4690BD00BF8E
:102CC000381500202DE9B04F96B000AF78657B6DC8
:102CD000D3E902017B6DD3E90423904271EB030336
:102CE00014DA714BD9687B6D1B886F4A0B43D36034
:102CF0007B6DD3E904017B6DD3E90223841A61EB78
:102D00000305204629467B6DC3E922017B6DD3E98B
:102D100002017B6DD3E9042382428B4117DA624BB7
:102D2000D9687B6D1B88DB435F4A0B40D3607B6DAA
:102D3000D3E902017B6DD3E90423841A3C6361EB80
:102D400003037B63D7E90C017B6DC3E922017B6D33
:102D5000D3E902017B6DD3E90423994208BF904275
:102D600006D1796D4FF000024FF00003C1E9222334
:102D70007B6D93F84030002B05D07B6D1B88194686
:102D8000494806F094FD7B6DD3E9082310461946A7
:102D9000FDF764FB7B6DD3E90E23FDF795FB02463F
:102DA0000B4610461946FDF7A3FE7B6DC3E91801DB
:102DB0007B6DD3E918017B6D1B6B0022BB62FA624D
:102DC000D7E90A45234603FB01F22B4600FB03F338
:102DD00013442246A0FB02894B4499464FF06402FB
:102DE0004FF0000340464946FDF750FE02460B46B1
:102DF000104619467B6DC3E91C017B6DD3E90801C0
:102E00007B6DD3E90A2302FB01F500FB03F42C449C
:102E1000A0FB02AB04EB0B039B4650465946FDF763
:102E20001DFB7B6DD3E90E23FDF74EFB02460B46DF
:102E300010461946FDF75CFE7B6DC3E91A017B6DF8
:102E4000D3E91A017B6DD3E90623FDF71FFE024685
:102E50000B46104619467B6DC3E91A017B6DD3E919
:102E60001A23134306D1796D4FF001024FF000038E
:102E7000C1E91A237B6DD3E91823134306D1796D79
:102E80004FF001024FF00003C1E918237B6DD3E935
:102E90001C2313430AD1796D4FF001024FF0000358
:102EA000C1E91C2302E000BF000C0140796D4FF026
:102EB00000024FF00003C1E92423796D4FF00002B6
:102EC0004FF00003C1E91E23796D4FF000024FF06F
:102ED0000003C1E92023796D4FF000024FF0000399
:102EE000C1E92623796D4FF000024FF00003C1E9DC
:102EF0002823796D4FF000024FF00003C1E92E2323
:102F00007B6DD3E91A017B6DD3E9222302FB01F526
:102F100000FB03F42C44A0FB0232FA64BB64FB6C9C
:102F2000E318FB647B6DD3E918017B6DD3E91823AB
:102F300002FB01F500FB03F42C44A0FB02327A648F
:102F40003B647B6CE3187B64D7E910120846D7E931
:102F500012341D46A842234672EB030334D27B6D24
:102F6000D3E91823796DD1E9180100FB03F502FBC1
:102F700001F42C44A2FB0032FA63BB63FB6BE31841
:102F8000FB637B6DD3E91A23911839605B417B6049
:102F9000D7E90023D7E90E01FDF778FD02460B467D
:102FA000796DC1E92A237B6DD3E922017B6DD3E9D9
:102FB0002A23841A3C6261EB03037B627B6DD7E9B1
:102FC0000812C3E92C121DE07B6DD3E922014FF0FA
:102FD00000024FF00003420842EAC1724B08796DCB
:102FE000C1E92A237B6DD3E922017B6DD3E92A2332
:102FF000841ABC6161EB0303FB617B6DD7E90612A8
:10300000C3E92C127B6DD3E922017B6DD3E92A231E
:10301000841A3C6161EB03037B617B6DD7E9041289
:10302000C3E92A127B6DD3E922017B6DD3E92C23FE
:10303000841ABC6061EB0303FB607B6DD7E902126D
:10304000C3E92C1200BF5837BD46BDE8B08F00BFA2
:10305000B0B586B000AF78607B6893F84230002B43
:1030600001D1002369E07B68D3E9062310461946A5
:10307000FDF7F4F97B68D3E90E23FDF725FA024644
:103080000B46104619464FF00002314BFDF746FB48
:1030900002460B4610461946FDF72AFD02460B462E
:1030A000C7E90223D7E9022327A1D1E90001FDF7EF
:1030B000EDFC02460B46C7E902237B689B88194654
:1030C000244806F0C5FB0346002B35D07B6893F8F7
:1030D00041301946204807F087FD7B681B88194658
:1030E0001E4806F0E4FB17E07B685B8819461B4826
:1030F00006F0DDFB00237B6104E000BF00BF7B69BD
:1031000001337B617B6900221C461546D7E9022307
:10311000944275EB0303F0D37B689B8819460D48F6
:1031200006F096FB0346002BDED179684FF00002D3
:103130004FF00003C1E92223002318461837BD468B
:10314000B0BD00BFAFF30080F05A140000000000D3
:10315000000024400008014098BE0008000C014017
:1031600080B582B000AF124807F0D8FD00237B6025
:1031700004E000BF00BF7B6801337B607B680D4AC1
:103180009342F6D90023FB7009E0FB780A4A52F813
:1031900023301846FFF75CFFFB780133FB70FB78A8
:1031A000042BF2D900BF00BF0837BD4680BD00BF69
:1031B000A8BE00085FE31600381500202DE9B04FC7
:1031C000A4B000AFC7F884005F4BC7F88C30ACE206
:1031D0005E4B9B6803F02003002B01D0FFF7C0FF7C
:1031E000D7F88430D3E92201D7F88430D3E92C23EF
:1031F000904271EB03035BD2D7F88430D3E928897E
:10320000D7F88430D3E92001D7F88430D3E91A23E2
:1032100002FB01F500FB03F42C44A0FB0232FA6729
:10322000BB67FB6FE318FB67D7F88C3000223B6667
:103230007A66D7E91823D7E91E01FDF727FC024675
:103240000B46B8EB0201B96569EB0303FB65D7F8E0
:103250008430D7E91612C3E92612D7F88430D3E9AF
:103260002601D7F88430D3E91C2382428B410FD347
:10327000D7F88430D3E91C01D7F88430C3E926019C
:1032800000BF00BF00BF00BF00BF00BF00BF0CE118
:10329000D7F88430D3E92023511C396543F100036A
:1032A0007B65D7F88430D7E91412C3E92012FCE01B
:1032B000D7F88430D3E92201D7F88430D3E92A2320
:1032C000904271EB030343D3D7F88430D3E91E0156
:1032D000D7F88430D3E91A2302FB01F500FB03F48D
:1032E0002C44A0FB02327A673B677B6FE3187B6755
:1032F000D7F88C300022BB64FA64D7E91223D7E9EF
:103300001C01FDF7C3FB02460B4610461946D7F8D1
:103310008430C3E92601D7F88430D3E91E23511C39
:10332000396443F100037B64D7F88430D7E9101285
:10333000C3E91E12D7F88430D3E92601D7F88430C8
:10334000C3E92801B1E000BFF8A101000008014075
:10335000D7F88430D3E91801D7F88430C3E92601BF
:10336000D7F88430D3F8C0305A1CD7F88430C3F86B
:10337000C020D7F88430D3F8C0305A1CD7F8843036
:10338000C3F8C020D7F88430D3F8C0305A1CD7F81F
:103390008430C3F8C020D7F88430D3F8C0305A1C2A
:1033A000D7F88430C3F8C020D7F88430D3F8C030C1
:1033B0005A1CD7F88430C3F8C020D7F88430D3F82B
:1033C000C0305A1CD7F88430C3F8C020D7F88430F6
:1033D000D3F8C0305A1CD7F88430C3F8C020D7F8CF
:1033E0008430D3F8C0305A1CD7F88430C3F8C020DA
:1033F000D7F88430D3F8C0305A1CD7F88430C3F8DB
:10340000C020D7F88430D3F8C0305A1CD7F88430A5
:10341000C3F8C020D7F88430D3F8C0305A1CD7F88E
:103420008430C3F8C020D7F88430D3F8C0305A1C99
:10343000D7F88430C3F8C020D7F88430D3F8C03030
:103440005A1CD7F88430C3F8C020D7F88430D3F89A
:10345000C0305A1CD7F88430C3F8C020D7F8843065
:10346000D3F8C0305A1CD7F88430C3F8C020D7F83E
:103470008430D3F8C0305A1CD7F88430C3F8C02049
:10348000D7F88430D3F8C0305A1CD7F88430C3F84A
:10349000C020D7F88430D3F8C0305A1CD7F8843015
:1034A000C3F8C02000BF00BF00BFD7F88430D3E905
:1034B0002401D7F88430D3E9262302FB01F500FB71
:1034C00003F42C44A0FB02AB04EB0B039B46D7F8A0
:1034D0008430D3E92E231AEB0201B9634BEB0303CB
:1034E000FB63D7F88C3000223B637A63D7E90C1278
:1034F0000846D7E90E341D46A842234672EB030363
:103500007FD2D7F88430D3E92223134379D0964B66
:10351000D968D7F884305B88934A0B43D360D7F8D7
:103520008430D3E92401D7F88430D3E9262302FB81
:1035300001F500FB03F42C44A0FB0232FA66BB66E3
:10354000FB6EE318FB66D7F88430D3E92E23D7E966
:103550001A4521468918B962294641EB0303FB62EB
:10356000D7F88C3000223B627A62D7E90A1208460B
:10357000D7E908341D46401BB861234662EB0303BC
:10358000FB61D7F88430D7E90612C3E92E12D7F8C9
:103590008430D3E92E23D7F88C100020396178616C
:1035A000D7E904010446944271EB030308D2D7F82B
:1035B00084104FF000024FF00003C1E92E2308E011
:1035C000D7F88430D3F8C0305A1CD7F88430C3F809
:1035D000C020D7F884104FF000024FF00003C1E97B
:1035E0002423D7F88430D3E92223511EB96043F154
:1035F000FF33FB60D7F88430D7E90212C3E9221207
:103600007BE0D7F88430D3F8C0305A1CD7F8843028
:10361000C3F8C020D7F88430D3F8C0305A1CD7F88C
:103620008430C3F8C020D7F88430D3F8C0305A1C97
:10363000D7F88430C3F8C020D7F88430D3F8C0302E
:103640005A1CD7F88430C3F8C020D7F88430D3F898
:10365000C0305A1CD7F88430C3F8C020D7F8843063
:10366000D3F8C0305A1CD7F88430C3F8C020D7F83C
:103670008430D3F8C0305A1CD7F88430C3F8C02047
:10368000D7F88430D3F8C0305A1CD7F88430C3F848
:10369000C020D7F88430D3F8C0305A1CD7F8843013
:1036A000C3F8C020D7F88430D3F8C0305A1CD7F8FC
:1036B0008430C3F8C020D7F88430D3F8C0305A1C07
:1036C000D7F88430C3F8C020D7F88430D3F8C0309E
:1036D0005A1CD7F88430C3F8C02000BF00BF00BF19
:1036E00000BF00BF00BF00BF1F4BD968D7F88430B0
:1036F0005B88DB431C4A0B40D360D7F88430D3E9A6
:103700002423511C396043F100037B60D7F88430D7
:10371000D7E90012C3E92412134BD968D7F88430D3
:103720005B88DB43104A0B40D360D7F88430D3E981
:10373000222313437FF44CAD0B4BDB68D7F8842076
:103740005288D2431146084A0B40D360D7F88430E0
:10375000D3E90423D7F88410C1E9022300BF9037CE
:10376000BD46BDE8B08F00BF000C01402DE9B04F51
:10377000C8B000AFC7F81401C7F810114DF2FC0330
:10378000C7F81C3100F088BD664B9B6803F020032E
:10379000002B01D0FFF7E4FCD7F81431D3E9220164
:1037A000D7F81431D3E92C23904271EB030365D28F
:1037B000D7F81431D3E92889D7F81431D3E9200197
:1037C000D7F81431D3E91A2302FB01F500FB03F407
:1037D0002C44A0FB0232C7F80C21C7F80831D7F8F7
:1037E0000C31E318C7F80C31D7F81C310022C7F8A8
:1037F000D030C7F8D420D7E93423D7E94201FDF708
:1038000045F902460B46B8EB0201C7F8C81069EB50
:103810000303C7F8CC30D7F81431D7E93212C3E923
:103820002612D7F81431D3E92601D7F81431D3E999
:103830001C2382428B410FD3D7F81431D3E91C01EA
:10384000D7F81431C3E9260100BF00BF00BF00BF95
:1038500000BF00BF00BF14E1D7F81431D3E9202323
:10386000511CC7F8C01043F10003C7F8C430D7F8A3
:103870001431D7E93012C3E9201202E1D7F814312C
:10388000D3E92201D7F81431D3E92A23904271EB0E
:10389000030349D3D7F81431D3E91E01D7F8143103
:1038A000D3E91A2302FB01F500FB03F42C44A0FB2F
:1038B0000232C7F80421C7F80031D7F80431E31801
:1038C000C7F80431D7F81C310022C7F8B830C7F860
:1038D000BC20D7E92E23D7E94001FDF7D7F80246EF
:1038E0000B4610461946D7F81431C3E92601D7F81C
:1038F0001431D3E91E23511CC7F8B01043F1000363
:10390000C7F8B430D7F81431D7E92C12C3E91E1226
:10391000D7F81431D3E92601D7F81431C3E92801C7
:10392000AFE000BF00080140D7F81431D3E9180117
:10393000D7F81431C3E92601D7F81431D3F8C030D1
:103940005A1CD7F81431C3F8C020D7F81431D3F873
:10395000C0305A1CD7F81431C3F8C020D7F814313E
:10396000D3F8C0305A1CD7F81431C3F8C020D7F8A8
:103970001431D3F8C0305A1CD7F81431C3F8C02022
:10398000D7F81431D3F8C0305A1CD7F81431C3F823
:10399000C020D7F81431D3F8C0305A1CD7F81431EE
:1039A000C3F8C020D7F81431D3F8C0305A1CD7F868
:1039B0001431C3F8C020D7F81431D3F8C0305A1CE2
:1039C000D7F81431C3F8C020D7F81431D3F8C03079
:1039D0005A1CD7F81431C3F8C020D7F81431D3F8E3
:1039E000C0305A1CD7F81431C3F8C020D7F81431AE
:1039F000D3F8C0305A1CD7F81431C3F8C020D7F818
:103A00001431D3F8C0305A1CD7F81431C3F8C02091
:103A1000D7F81431D3F8C0305A1CD7F81431C3F892
:103A2000C020D7F81431D3F8C0305A1CD7F814315D
:103A3000C3F8C020D7F81431D3F8C0305A1CD7F8D7
:103A40001431C3F8C020D7F81431D3F8C0305A1C51
:103A5000D7F81431C3F8C020D7F81431D3F8C030E8
:103A60005A1CD7F81431C3F8C020D7F81431D3F852
:103A7000C0305A1CD7F81431C3F8C02000BF00BFB3
:103A800000BFD7F81431D3E92401D7F81431D3E9B2
:103A9000262302FB01F500FB03F42C44A0FB02AB40
:103AA00004EB0B039B46D7F81431D3E92E231AEB12
:103AB0000201C7F8A8104BEB0303C7F8AC30D7F8E6
:103AC0001C310022C7F8A030C7F8A420D7E928127B
:103AD0000846D7E92A341D46A842234672EB030361
:103AE00080F08D80D7F81431D3E92223134300F0FE
:103AF0008680C34BD968D7F814315B88C04A0B4322
:103B0000D360D7F81431D3E92401D7F81431D3E9BD
:103B1000262302FB01F500FB03F42C44A0FB023238
:103B2000C7F8FC20C7F8F830D7F8FC30E318C7F81E
:103B3000FC30D7F81431D3E92E23D7E93E4521468E
:103B40008918C7F89810294641EB0303C7F89C3041
:103B5000D7F81C310022C7F89030C7F89420D7E975
:103B600026120846D7E924341D46401BC7F88800B2
:103B7000234662EB0303C7F88C30D7F81431D7E93A
:103B80002212C3E92E12D7F81431D3E92E23D7F825
:103B90001C110020C7F88010C7F88400D7E9200165
:103BA0000446944271EB030308D2D7F814114FF086
:103BB00000024FF00003C1E92E2308E0D7F81431CA
:103BC000D3F8C0305A1CD7F81431C3F8C020D7F846
:103BD00014114FF000024FF00003C1E92423D7F87D
:103BE0001431D3E92223511EB96743F1FF33FB6738
:103BF000D7F81431D7E91E12C3E922127BE0D7F8B7
:103C00001431D3F8C0305A1CD7F81431C3F8C0208F
:103C1000D7F81431D3F8C0305A1CD7F81431C3F890
:103C2000C020D7F81431D3F8C0305A1CD7F814315B
:103C3000C3F8C020D7F81431D3F8C0305A1CD7F8D5
:103C40001431C3F8C020D7F81431D3F8C0305A1C4F
:103C5000D7F81431C3F8C020D7F81431D3F8C030E6
:103C60005A1CD7F81431C3F8C020D7F81431D3F850
:103C7000C0305A1CD7F81431C3F8C020D7F814311B
:103C8000D3F8C0305A1CD7F81431C3F8C020D7F885
:103C90001431D3F8C0305A1CD7F81431C3F8C020FF
:103CA000D7F81431D3F8C0305A1CD7F81431C3F800
:103CB000C020D7F81431D3F8C0305A1CD7F81431CB
:103CC000C3F8C020D7F81431D3F8C0305A1CD7F845
:103CD0001431C3F8C02000BF00BF00BF00BF00BF49
:103CE00000BF00BF464BD968D7F814315B88DB436F
:103CF000434A0B40D360D7F81431D3E92423511C35
:103D0000396743F100037B67D7F81431D7E91C12F8
:103D1000C3E924123A4BD968D7F814315B88DB43E6
:103D2000374A0B40D360D7F81031D3E92201D7F8D6
:103D30001031D3E92C23904271EB030362D2D7F800
:103D40001031D3E92889D7F81031D3E92001D7F809
:103D50001031D3E91A2302FB01F500FB03F42C44D4
:103D6000A0FB0232C7F8F420C7F8F030D7F8F430DF
:103D7000E318C7F8F430D7F81C310022BB66FA66A6
:103D8000D7E91A23D7E93C01FCF780FE02460B462F
:103D9000B8EB0201396669EB03037B66D7F8103193
:103DA000D7E91812C3E92612D7F81031D3E9260152
:103DB000D7F81031D3E91C2382428B410FD3D7F8B7
:103DC0001031D3E91C01D7F81031C3E9260100BF37
:103DD00000BF00BF00BF00BF00BF00BF0EE1D7F8AB
:103DE0001031D3E92023511CB96543F10003FB6571
:103DF000D7F81031D7E91612C3E92012FEE000BF50
:103E0000000C0140D7F81031D3E92201D7F8103166
:103E1000D3E92A23904271EB030342D3D7F8103140
:103E2000D3E91E01D7F81031D3E91A2302FB01F5BB
:103E300000FB03F42C44A0FB0232C7F8EC20C7F8C7
:103E4000E830D7F8EC30E318C7F8EC30D7F81C317D
:103E500000223B657A65D7E91423D7E93A01FCF7DC
:103E600015FE02460B4610461946D7F81031C3E935
:103E70002601D7F81031D3E91E23511CB96443F150
:103E80000003FB64D7F81031D7E91212C3E91E1200
:103E9000D7F81031D3E92601D7F81031C3E928014A
:103EA000ACE0D7F81031D3E91801D7F81031C3E9E5
:103EB0002601D7F81031D3F8C0305A1CD7F810318A
:103EC000C3F8C020D7F81031D3F8C0305A1CD7F847
:103ED0001031C3F8C020D7F81031D3F8C0305A1CC5
:103EE000D7F81031C3F8C020D7F81031D3F8C0305C
:103EF0005A1CD7F81031C3F8C020D7F81031D3F8C6
:103F0000C0305A1CD7F81031C3F8C020D7F8103190
:103F1000D3F8C0305A1CD7F81031C3F8C020D7F8F6
:103F20001031D3F8C0305A1CD7F81031C3F8C02074
:103F3000D7F81031D3F8C0305A1CD7F81031C3F875
:103F4000C020D7F81031D3F8C0305A1CD7F8103140
:103F5000C3F8C020D7F81031D3F8C0305A1CD7F8B6
:103F60001031C3F8C020D7F81031D3F8C0305A1C34
:103F7000D7F81031C3F8C020D7F81031D3F8C030CB
:103F80005A1CD7F81031C3F8C020D7F81031D3F835
:103F9000C0305A1CD7F81031C3F8C020D7F8103100
:103FA000D3F8C0305A1CD7F81031C3F8C020D7F866
:103FB0001031D3F8C0305A1CD7F81031C3F8C020E4
:103FC000D7F81031D3F8C0305A1CD7F81031C3F8E5
:103FD000C020D7F81031D3F8C0305A1CD7F81031B0
:103FE000C3F8C020D7F81031D3F8C0305A1CD7F826
:103FF0001031C3F8C02000BF00BF00BFD7F8103198
:10400000D3E92401D7F81031D3E9262302FB01F5C7
:1040100000FB03F42C44A0FB0232C7F8E420C7F8ED
:10402000E030D7F8E430E318C7F8E430D7F81031BF
:10403000D3E92E23D7E93845214689183964294622
:1040400041EB03037B64D7F81C310022BB63FA63A6
:10405000D7E90E120846D7E910341D46A842234678
:1040600072EB030380F08480D7F81031D3E9222368
:1040700013437DD0A74BD968D7F810315B88A54A88
:104080000B43D360D7F81031D3E92401D7F81031AE
:10409000D3E9262302FB01F500FB03F42C44A0FB2B
:1040A0000232C7F8DC20C7F8D830D7F8DC30E31884
:1040B000C7F8DC30D7F81031D3E92E23D7E93645DD
:1040C000214689183963294641EB03037B63D7F8FE
:1040D0001C310022BB62FA62D7E90C120846D7E90C
:1040E0000A341D46401B3862234662EB03037B62A1
:1040F000D7F81031D7E90812C3E92E12D7F81031DA
:10410000D3E92E23D7F81C110020B961F861D7E953
:1041100006010446944271EB030308D2D7F810114C
:104120004FF000024FF00003C1E92E2308E0D7F85A
:104130001031D3F8C0305A1CD7F81031C3F8C02062
:10414000D7F810114FF000024FF00003C1E924230B
:10415000D7F81031D3E92223511E396143F1FF33DF
:104160007B61D7F81031D7E90412C3E922127BE052
:10417000D7F81031D3F8C0305A1CD7F81031C3F833
:10418000C020D7F81031D3F8C0305A1CD7F81031FE
:10419000C3F8C020D7F81031D3F8C0305A1CD7F874
:1041A0001031C3F8C020D7F81031D3F8C0305A1CF2
:1041B000D7F81031C3F8C020D7F81031D3F8C03089
:1041C0005A1CD7F81031C3F8C020D7F81031D3F8F3
:1041D000C0305A1CD7F81031C3F8C020D7F81031BE
:1041E000D3F8C0305A1CD7F81031C3F8C020D7F824
:1041F0001031D3F8C0305A1CD7F81031C3F8C020A2
:10420000D7F81031D3F8C0305A1CD7F81031C3F8A2
:10421000C020D7F81031D3F8C0305A1CD7F810316D
:10422000C3F8C020D7F81031D3F8C0305A1CD7F8E3
:104230001031C3F8C020D7F81031D3F8C0305A1C61
:10424000D7F81031C3F8C02000BF00BF00BF00BFC7
:1042500000BF00BF00BF2F4BD968D7F810315B8873
:10426000DB432C4A0B40D360D7F81031D3E9242329
:10427000511CB96043F10003FB60D7F81031D7E956
:104280000212C3E92412234BD968D7F810315B8896
:10429000DB43204A0B40D360D7F81431D3E9220125
:1042A000D7F81031D3E9222384183C6041EB030393
:1042B0007B60D7E900341A46234613437FF464AA8F
:1042C000144BDB68D7F814215288D2431146114AA7
:1042D0000B40D3600F4BDB68D7F810215288D243D4
:1042E00011460C4A0B40D360D7F81431D3E90423AC
:1042F000D7F81411C1E90223D7F81031D3E9042308
:10430000D7F81011C1E9022300BF07F59077BD4629
:10431000BDE8B08F000C01402DE9B04FEEB000AF0A
:10432000C7F8AC01C7F8A811C7F8A42148F6523362
:10433000C7F8B43101F05EB8664B9B6803F0200308
:10434000002B01D0FEF70CFFD7F8AC31D3E92201E6
:10435000D7F8AC31D3E92C23904271EB030365D23B
:10436000D7F8AC31D3E92889D7F8AC31D3E92001AB
:10437000D7F8AC31D3E91A2302FB01F500FB03F4B3
:104380002C44A0FB0232C7F89C21C7F89831D7F81B
:104390009C31E318C7F89C31D7F8B4310022C7F834
:1043A0004031C7F84421D7E95023D7E96601FCF72B
:1043B0006DFB02460B46B8EB0201C7F8381169EBFA
:1043C0000303C7F83C31D7F8AC31D7E94E12C3E943
:1043D0002612D7F8AC31D3E92601D7F8AC31D3E9AE
:1043E0001C2382428B410FD3D7F8AC31D3E91C0197
:1043F000D7F8AC31C3E9260100BF00BF00BF00BF42
:1044000000BF00BF00BF14E1D7F8AC31D3E92023CF
:10441000511CC7F8301143F10003C7F83431D7F805
:10442000AC31D7E94C12C3E9201202E1D7F8AC3124
:10443000D3E92201D7F8AC31D3E92A23904271EBBA
:10444000030349D3D7F8AC31D3E91E01D7F8AC3117
:10445000D3E91A2302FB01F500FB03F42C44A0FB73
:104460000232C7F89421C7F89031D7F89431E31895
:10447000C7F89431D7F8B4310022C7F82831C7F80B
:104480002C21D7E94A23D7E96401FCF7FFFA024659
:104490000B4610461946D7F8AC31C3E92601D7F8C8
:1044A000AC31D3E91E23511CC7F8201143F100039E
:1044B000C7F82431D7F8AC31D7E94812C3E91E1246
:1044C000D7F8AC31D3E92601D7F8AC31C3E92801DC
:1044D000AFE000BF00080140D7F8AC31D3E91801C4
:1044E000D7F8AC31C3E92601D7F8AC31D3F8C030E6
:1044F0005A1CD7F8AC31C3F8C020D7F8AC31D3F888
:10450000C0305A1CD7F8AC31C3F8C020D7F8AC3152
:10451000D3F8C0305A1CD7F8AC31C3F8C020D7F854
:10452000AC31D3F8C0305A1CD7F8AC31C3F8C02036
:10453000D7F8AC31D3F8C0305A1CD7F8AC31C3F837
:10454000C020D7F8AC31D3F8C0305A1CD7F8AC3102
:10455000C3F8C020D7F8AC31D3F8C0305A1CD7F814
:10456000AC31C3F8C020D7F8AC31D3F8C0305A1CF6
:10457000D7F8AC31C3F8C020D7F8AC31D3F8C0308D
:104580005A1CD7F8AC31C3F8C020D7F8AC31D3F8F7
:10459000C0305A1CD7F8AC31C3F8C020D7F8AC31C2
:1045A000D3F8C0305A1CD7F8AC31C3F8C020D7F8C4
:1045B000AC31D3F8C0305A1CD7F8AC31C3F8C020A6
:1045C000D7F8AC31D3F8C0305A1CD7F8AC31C3F8A7
:1045D000C020D7F8AC31D3F8C0305A1CD7F8AC3172
:1045E000C3F8C020D7F8AC31D3F8C0305A1CD7F884
:1045F000AC31C3F8C020D7F8AC31D3F8C0305A1C66
:10460000D7F8AC31C3F8C020D7F8AC31D3F8C030FC
:104610005A1CD7F8AC31C3F8C020D7F8AC31D3F866
:10462000C0305A1CD7F8AC31C3F8C02000BF00BF5F
:1046300000BFD7F8AC31D3E92401D7F8AC31D3E9C6
:10464000262302FB01F500FB03F42C44A0FB02AB84
:1046500004EB0B039B46D7F8AC31D3E92E231AEBBE
:104660000201C7F818114BEB0303C7F81C31D7F848
:10467000B4310022C7F81031C7F81421D7E9441229
:104680000846D7E946341D46A842234672EB030389
:1046900080F08F80D7F8AC31D3E92223134300F0A8
:1046A0008880C84BD968D7F8AC315B88C54A0B43C2
:1046B000D360D7F8AC31D3E92401D7F8AC31D3E9D2
:1046C000262302FB01F500FB03F42C44A0FB02327D
:1046D000C7F88C21C7F88831D7F88C31E318C7F8B0
:1046E0008C31D7F8AC31D3E92E23D7E96245214686
:1046F0008918C7F80811294641EB0303C7F80C31A4
:10470000D7F8B4310022C7F80031C7F80421D7E93F
:1047100042120846D7E940341D46401BC7F8F8004E
:10472000234662EB0303C7F8FC30D7F8AC31D7E976
:104730003E12C3E92E12D7F8AC31D3E92E23D7F8B5
:10474000B4110020C7F8F010C7F8F400D7E93C0115
:104750000446944271EB030308D2D7F8AC114FF032
:1047600000024FF00003C1E92E2308E0D7F8AC3176
:10477000D3F8C0305A1CD7F8AC31C3F8C020D7F8F2
:10478000AC114FF000024FF00003C1E92423D7F829
:10479000AC31D3E92223511EC7F8E81043F1FF33AF
:1047A000C7F8EC30D7F8AC31D7E93A12C3E9221296
:1047B0007BE0D7F8AC31D3F8C0305A1CD7F8AC3115
:1047C000C3F8C020D7F8AC31D3F8C0305A1CD7F8A2
:1047D000AC31C3F8C020D7F8AC31D3F8C0305A1C84
:1047E000D7F8AC31C3F8C020D7F8AC31D3F8C0301B
:1047F0005A1CD7F8AC31C3F8C020D7F8AC31D3F885
:10480000C0305A1CD7F8AC31C3F8C020D7F8AC314F
:10481000D3F8C0305A1CD7F8AC31C3F8C020D7F851
:10482000AC31D3F8C0305A1CD7F8AC31C3F8C02033
:10483000D7F8AC31D3F8C0305A1CD7F8AC31C3F834
:10484000C020D7F8AC31D3F8C0305A1CD7F8AC31FF
:10485000C3F8C020D7F8AC31D3F8C0305A1CD7F811
:10486000AC31C3F8C020D7F8AC31D3F8C0305A1CF3
:10487000D7F8AC31C3F8C020D7F8AC31D3F8C0308A
:104880005A1CD7F8AC31C3F8C02000BF00BF00BF2E
:1048900000BF00BF00BF00BF4A4BD968D7F8AC319A
:1048A0005B88DB43474A0B40D360D7F8AC31D3E990
:1048B0002423511CC7F8E01043F10003C7F8E4308B
:1048C000D7F8AC31D7E93812C3E924123D4BD96887
:1048D000D7F8AC315B88DB433A4A0B40D360D7F85A
:1048E000A831D3E92201D7F8A831D3E92C2390428B
:1048F00071EB030368D2D7F8A831D3E92889D7F838
:10490000A831D3E92001D7F8A831D3E91A2302FB53
:1049100001F500FB03F42C44A0FB0232C7F884210C
:10492000C7F88031D7F88431E318C7F88431D7F855
:10493000B4310022C7F8D830C7F8DC20D7E93623D5
:10494000D7E96001FCF7A2F802460B46B8EB02017A
:10495000C7F8D01069EB0303C7F8D430D7F8A831F3
:10496000D7E93412C3E92612D7F8A831D3E92601D2
:10497000D7F8A831D3E91C2382428B410FD3D7F853
:10498000A831D3E91C01D7F8A831C3E9260100BF3B
:1049900000BF00BF00BF00BF00BF00BF14E1D7F8D9
:1049A000A831D3E92023511CC7F8C81043F10003F4
:1049B000C7F8CC30D7F8A831D7E93212C3E92012B2
:1049C00002E100BF000C0140D7F8A831D3E9220171
:1049D000D7F8A831D3E92A23904271EB030346D3D9
:1049E000D7F8A831D3E91E01D7F8A831D3E91A23A3
:1049F00002FB01F500FB03F42C44A0FB0232C7F8D4
:104A00007C21C7F87831D7F87C31E318C7F87C31BE
:104A1000D7F8B4310022C7F8C030C7F8C420D7E9AE
:104A20003023D7E95E01FCF731F802460B46104609
:104A30001946D7F8A831C3E92601D7F8A831D3E938
:104A40001E23511CC7F8B81043F10003C7F8BC304F
:104A5000D7F8A831D7E92E12C3E91E12D7F8A8312A
:104A6000D3E92601D7F8A831C3E92801ACE0D7F88B
:104A7000A831D3E91801D7F8A831C3E92601D7F83E
:104A8000A831D3F8C0305A1CD7F8A831C3F8C020D9
:104A9000D7F8A831D3F8C0305A1CD7F8A831C3F8DA
:104AA000C020D7F8A831D3F8C0305A1CD7F8A831A5
:104AB000C3F8C020D7F8A831D3F8C0305A1CD7F8B3
:104AC000A831C3F8C020D7F8A831D3F8C0305A1C99
:104AD000D7F8A831C3F8C020D7F8A831D3F8C03030
:104AE0005A1CD7F8A831C3F8C020D7F8A831D3F89A
:104AF000C0305A1CD7F8A831C3F8C020D7F8A83165
:104B0000D3F8C0305A1CD7F8A831C3F8C020D7F862
:104B1000A831D3F8C0305A1CD7F8A831C3F8C02048
:104B2000D7F8A831D3F8C0305A1CD7F8A831C3F849
:104B3000C020D7F8A831D3F8C0305A1CD7F8A83114
:104B4000C3F8C020D7F8A831D3F8C0305A1CD7F822
:104B5000A831C3F8C020D7F8A831D3F8C0305A1C08
:104B6000D7F8A831C3F8C020D7F8A831D3F8C0309F
:104B70005A1CD7F8A831C3F8C020D7F8A831D3F809
:104B8000C0305A1CD7F8A831C3F8C020D7F8A831D4
:104B9000D3F8C0305A1CD7F8A831C3F8C020D7F8D2
:104BA000A831D3F8C0305A1CD7F8A831C3F8C020B8
:104BB000D7F8A831D3F8C0305A1CD7F8A831C3F8B9
:104BC000C02000BF00BF00BFD7F8A831D3E924013F
:104BD000D7F8A831D3E9262302FB01F500FB03F443
:104BE0002C44A0FB0232C7F87421C7F87031D7F803
:104BF0007431E318C7F87431D7F8A831D3E92E23FC
:104C0000D7E95C4521468918C7F8B010294641EB21
:104C10000303C7F8B430D7F8B4310022C7F8A8307E
:104C2000C7F8AC20D7E92A120846D7E92C341D462C
:104C3000A842234672EB030380F08F80D7F8A83197
:104C4000D3E92223134300F08880C44BD968D7F8F6
:104C5000A8315B88C14A0B43D360D7F8A831D3E9A8
:104C60002401D7F8A831D3E9262302FB01F500FB84
:104C700003F42C44A0FB0232C7F86C21C7F868315A
:104C8000D7F86C31E318C7F86C31D7F8A831D3E9FD
:104C90002E23D7E95A4521468918C7F8A01029467E
:104CA00041EB0303C7F8A430D7F8B4310022C7F8AA
:104CB0009830C7F89C20D7E928120846D7E926344F
:104CC0001D46401BC7F89000234662EB0303C7F85C
:104CD0009430D7F8A831D7E92412C3E92E12D7F8B7
:104CE000A831D3E92E23D7F8B4110020C7F88810D3
:104CF000C7F88C00D7E922010446944271EB030304
:104D000008D2D7F8A8114FF000024FF00003C1E914
:104D10002E2308E0D7F8A831D3F8C0305A1CD7F8B2
:104D2000A831C3F8C020D7F8A8114FF000024FF007
:104D30000003C1E92423D7F8A831D3E92223511E67
:104D4000C7F8801043F1FF33C7F88430D7F8A83193
:104D5000D7E92012C3E922127BE0D7F8A831D3F8B3
:104D6000C0305A1CD7F8A831C3F8C020D7F8A831F2
:104D7000D3F8C0305A1CD7F8A831C3F8C020D7F8F0
:104D8000A831D3F8C0305A1CD7F8A831C3F8C020D6
:104D9000D7F8A831D3F8C0305A1CD7F8A831C3F8D7
:104DA000C020D7F8A831D3F8C0305A1CD7F8A831A2
:104DB000C3F8C020D7F8A831D3F8C0305A1CD7F8B0
:104DC000A831C3F8C020D7F8A831D3F8C0305A1C96
:104DD000D7F8A831C3F8C020D7F8A831D3F8C0302D
:104DE0005A1CD7F8A831C3F8C020D7F8A831D3F897
:104DF000C0305A1CD7F8A831C3F8C020D7F8A83162
:104E0000D3F8C0305A1CD7F8A831C3F8C020D7F85F
:104E1000A831D3F8C0305A1CD7F8A831C3F8C02045
:104E2000D7F8A831D3F8C0305A1CD7F8A831C3F846
:104E3000C02000BF00BF00BF00BF00BF00BF00BF59
:104E4000464BD968D7F8A8315B88DB43434A0B400F
:104E5000D360D7F8A831D3E92423511CB96743F1B3
:104E60000003FB67D7F8A831D7E91E12C3E9241263
:104E70003A4BD968D7F8A8315B88DB43374A0B40F7
:104E8000D360D7F8A431D3E92201D7F8A431D3E90C
:104E90002C23904271EB030362D2D7F8A431D3E9FB
:104EA0002889D7F8A431D3E92001D7F8A431D3E970
:104EB0001A2302FB01F500FB03F42C44A0FB023291
:104EC000C7F86421C7F86031D7F86431E318C7F830
:104ED0006431D7F8B43100223B677A67D7E91C23E5
:104EE000D7E95801FBF7D2FD02460B46B8EB0201A9
:104EF000B96669EB0303FB66D7F8A431D7E91A1248
:104F0000C3E92612D7F8A431D3E92601D7F8A43192
:104F1000D3E91C2382428B410FD3D7F8A431D3E9C4
:104F20001C01D7F8A431C3E9260100BF00BF00BFB0
:104F300000BF00BF00BF00BF0EE1D7F8A431D3E926
:104F40002023511C396643F100037B66D7F8A43156
:104F5000D7E91812C3E92012FEE000BF000C01409F
:104F6000D7F8A431D3E92201D7F8A431D3E92A2311
:104F7000904271EB030342D3D7F8A431D3E91E0169
:104F8000D7F8A431D3E91A2302FB01F500FB03F49F
:104F90002C44A0FB0232C7F85C21C7F85831D7F87F
:104FA0005C31E318C7F85C31D7F8B4310022BB6537
:104FB000FA65D7E91623D7E95601FBF767FD0246E4
:104FC0000B4610461946D7F8A431C3E92601D7F895
:104FD000A431D3E91E23511C396543F100037B65DD
:104FE000D7F8A431D7E91412C3E91E12D7F8A431B7
:104FF000D3E92601D7F8A431C3E92801ACE0D7F8FA
:10500000A431D3E91801D7F8A431C3E92601D7F8B0
:10501000A431D3F8C0305A1CD7F8A431C3F8C0204B
:10502000D7F8A431D3F8C0305A1CD7F8A431C3F84C
:10503000C020D7F8A431D3F8C0305A1CD7F8A43117
:10504000C3F8C020D7F8A431D3F8C0305A1CD7F821
:10505000A431C3F8C020D7F8A431D3F8C0305A1C0B
:10506000D7F8A431C3F8C020D7F8A431D3F8C030A2
:105070005A1CD7F8A431C3F8C020D7F8A431D3F80C
:10508000C0305A1CD7F8A431C3F8C020D7F8A431D7
:10509000D3F8C0305A1CD7F8A431C3F8C020D7F8D1
:1050A000A431D3F8C0305A1CD7F8A431C3F8C020BB
:1050B000D7F8A431D3F8C0305A1CD7F8A431C3F8BC
:1050C000C020D7F8A431D3F8C0305A1CD7F8A43187
:1050D000C3F8C020D7F8A431D3F8C0305A1CD7F891
:1050E000A431C3F8C020D7F8A431D3F8C0305A1C7B
:1050F000D7F8A431C3F8C020D7F8A431D3F8C03012
:105100005A1CD7F8A431C3F8C020D7F8A431D3F87B
:10511000C0305A1CD7F8A431C3F8C020D7F8A43146
:10512000D3F8C0305A1CD7F8A431C3F8C020D7F840
:10513000A431D3F8C0305A1CD7F8A431C3F8C0202A
:10514000D7F8A431D3F8C0305A1CD7F8A431C3F82B
:10515000C02000BF00BF00BFD7F8A431D3E92401AD
:10516000D7F8A431D3E9262302FB01F500FB03F4B1
:105170002C44A0FB0232C7F85421C7F85031D7F8AD
:105180005431E318C7F85431D7F8A431D3E92E23AA
:10519000D7E9544521468918B964294641EB0303F0
:1051A000FB64D7F8B43100223B647A64D7E910126B
:1051B0000846D7E912341D46A842234672EB030382
:1051C00080F08480D7F8A431D3E9222313437DD023
:1051D000B74BD968D7F8A4315B88B54A0B43D36085
:1051E000D7F8A431D3E92401D7F8A431D3E9262391
:1051F00002FB01F500FB03F42C44A0FB0232C7F8CC
:105200004C21C7F84831D7F84C31E318C7F84C3176
:10521000D7F8A431D3E92E23D7E95245214689187E
:10522000B963294641EB0303FB63D7F8B43100228D
:105230003B637A63D7E90E120846D7E90C341D4662
:10524000401BB862234662EB0303FB62D7F8A4312C
:10525000D7E90A12C3E92E12D7F8A431D3E92E23D5
:10526000D7F8B411002039627862D7E90801044602
:10527000944271EB030308D2D7F8A4114FF0000257
:105280004FF00003C1E92E2308E0D7F8A431D3F88A
:10529000C0305A1CD7F8A431C3F8C020D7F8A411E5
:1052A0004FF000024FF00003C1E92423D7F8A431E6
:1052B000D3E92223511EB96143F1FF33FB61D7F8D3
:1052C000A431D7E90612C3E922127BE0D7F8A43152
:1052D000D3F8C0305A1CD7F8A431C3F8C020D7F88F
:1052E000A431D3F8C0305A1CD7F8A431C3F8C02079
:1052F000D7F8A431D3F8C0305A1CD7F8A431C3F87A
:10530000C020D7F8A431D3F8C0305A1CD7F8A43144
:10531000C3F8C020D7F8A431D3F8C0305A1CD7F84E
:10532000A431C3F8C020D7F8A431D3F8C0305A1C38
:10533000D7F8A431C3F8C020D7F8A431D3F8C030CF
:105340005A1CD7F8A431C3F8C020D7F8A431D3F839
:10535000C0305A1CD7F8A431C3F8C020D7F8A43104
:10536000D3F8C0305A1CD7F8A431C3F8C020D7F8FE
:10537000A431D3F8C0305A1CD7F8A431C3F8C020E8
:10538000D7F8A431D3F8C0305A1CD7F8A431C3F8E9
:10539000C020D7F8A431D3F8C0305A1CD7F8A431B4
:1053A000C3F8C02000BF00BF00BF00BF00BF00BFE8
:1053B00000BF3F4BD968D7F8A4315B88DB433C4A38
:1053C0000B40D360D7F8A431D3E92423511C3961B1
:1053D00043F100037B61D7F8A431D7E90412C3E994
:1053E0002412334BD968D7F8A4315B88DB43304AA9
:1053F0000B40D360D7F8AC31D3E92201D7F8A831FC
:10540000D3E922238418BC6041EB0303FB60D7F887
:10541000A431D3E92223D7E902452146891839600E
:10542000294641EB03037B60D7E900341A46234643
:1054300013437EF481AF1E4BDB68D7F8AC21528852
:10544000D24311461A4A0B40D360194BDB68D7F898
:10545000A8215288D2431146154A0B40D360144B01
:10546000DB68D7F8A4215288D2431146104A0B407A
:10547000D360D7F8AC31D3E90423D7F8AC11C1E934
:105480000223D7F8A831D3E90423D7F8A811C1E93A
:105490000223D7F8A431D3E90423D7F8A411C1E932
:1054A000022300BF07F5DC77BD46BDE8B08F00BF23
:1054B000000C01402DE9B04FADF5127D00AFC7F8EB
:1054C0003C02C7F83812C7F83422C7F8303246F623
:1054D0007E03C7F8443201F035BB664B9B6803F08E
:1054E0002003002B01D0FDF73BFED7F83C32D3E977
:1054F0002201D7F83C32D3E92C23904271EB03030D
:1055000065D2D7F83C32D3E92889D7F83C32D3E9C1
:105510002001D7F83C32D3E91A2302FB01F500FB46
:1055200003F42C44A0FB0232C7F82C22C7F828321F
:10553000D7F82C32E318C7F82C32D7F844320022BF
:10554000C7F8B031C7F8B421D7E96C23D7E98A018D
:10555000FBF79CFA02460B46B8EB0201C7F8A8110C
:1055600069EB0303C7F8AC31D7F83C32D7E96A12CC
:10557000C3E92612D7F83C32D3E92601D7F83C32EA
:10558000D3E91C2382428B410FD3D7F83C32D3E9B5
:105590001C01D7F83C32C3E9260100BF00BF00BFA1
:1055A00000BF00BF00BF00BF13E1D7F83C32D3E912
:1055B0002023511CC7F8A01143F10003C7F8A43100
:1055C000D7F83C32D7E96812C3E9201201E1D7F8D5
:1055D0003C32D3E92201D7F83C32D3E92A23904266
:1055E00071EB030348D3D7F83C32D3E91E01D7F857
:1055F0003C32D3E91A2302FB01F500FB03F42C44EF
:10560000A0FB0232C7F82422C7F82032D7F8243290
:10561000E318C7F82432D7F844320022C7F898318B
:10562000C7F89C21D7E96623D7E98801FBF72EFA52
:1056300002460B4610461946D7F83C32C3E926010C
:10564000D7F83C32D3E91E23511CC7F8901143F11F
:105650000003C7F89431D7F83C32D7E96412C3E9A4
:105660001E12D7F83C32D3E92601D7F83C32C3E901
:105670002801AEE000080140D7F83C32D3E9180118
:10568000D7F83C32C3E92601D7F83C32D3F8C03012
:105690005A1CD7F83C32C3F8C020D7F83C32D3F8B4
:1056A000C0305A1CD7F83C32C3F8C020D7F83C327F
:1056B000D3F8C0305A1CD7F83C32C3F8C020D7F812
:1056C0003C32D3F8C0305A1CD7F83C32C3F8C02063
:1056D000D7F83C32D3F8C0305A1CD7F83C32C3F864
:1056E000C020D7F83C32D3F8C0305A1CD7F83C322F
:1056F000C3F8C020D7F83C32D3F8C0305A1CD7F8D2
:105700003C32C3F8C020D7F83C32D3F8C0305A1C22
:10571000D7F83C32C3F8C020D7F83C32D3F8C030B9
:105720005A1CD7F83C32C3F8C020D7F83C32D3F823
:10573000C0305A1CD7F83C32C3F8C020D7F83C32EE
:10574000D3F8C0305A1CD7F83C32C3F8C020D7F881
:105750003C32D3F8C0305A1CD7F83C32C3F8C020D2
:10576000D7F83C32D3F8C0305A1CD7F83C32C3F8D3
:10577000C020D7F83C32D3F8C0305A1CD7F83C329E
:10578000C3F8C020D7F83C32D3F8C0305A1CD7F841
:105790003C32C3F8C020D7F83C32D3F8C0305A1C92
:1057A000D7F83C32C3F8C020D7F83C32D3F8C03029
:1057B0005A1CD7F83C32C3F8C020D7F83C32D3F893
:1057C000C0305A1CD7F83C32C3F8C02000BF00BF1D
:1057D00000BFD7F83C32D3E92401D7F83C32D3E9F3
:1057E000262302FB01F500FB03F42C44A0FB02ABD3
:1057F00004EB0B039B46D7F83C32D3E92E231AEB7C
:105800000201C7F888114BEB0303C7F88C31D7F8B6
:1058100044320022C7F88031C7F88421D7E96012EA
:105820000846D7E962341D46A842234672EB0303BB
:1058300080F08F80D7F83C32D3E92223134300F065
:105840008880C84BD968D7F83C325B88C54A0B437F
:10585000D360D7F83C32D3E92401D7F83C32D3E9FE
:10586000262302FB01F500FB03F42C44A0FB0232CB
:10587000C7F81C22C7F81832D7F81C32E318C7F84B
:105880001C32D7F83C32D3E92E23D7E9864521468E
:105890008918C7F87811294641EB0303C7F87C3112
:1058A000D7F844320022C7F87031C7F87421D7E91D
:1058B0005E120846D7E95C341D46401BC7F86801F4
:1058C000234662EB0303C7F86C31D7F83C32D7E9C3
:1058D0005A12C3E92E12D7F83C32D3E92E23D7F857
:1058E00044120020C7F86011C7F86401D7E95801D5
:1058F0000446944271EB030308D2D7F83C124FF0F0
:1059000000024FF00003C1E92E2308E0D7F83C3233
:10591000D3F8C0305A1CD7F83C32C3F8C020D7F8AF
:105920003C124FF000024FF00003C1E92423D7F8E6
:105930003C32D3E92223511EC7F8581143F1FF33FB
:10594000C7F85C31D7F83C32D7E95612C3E92212C6
:105950007BE0D7F83C32D3F8C0305A1CD7F83C3241
:10596000C3F8C020D7F83C32D3F8C0305A1CD7F85F
:105970003C32C3F8C020D7F83C32D3F8C0305A1CB0
:10598000D7F83C32C3F8C020D7F83C32D3F8C03047
:105990005A1CD7F83C32C3F8C020D7F83C32D3F8B1
:1059A000C0305A1CD7F83C32C3F8C020D7F83C327C
:1059B000D3F8C0305A1CD7F83C32C3F8C020D7F80F
:1059C0003C32D3F8C0305A1CD7F83C32C3F8C02060
:1059D000D7F83C32D3F8C0305A1CD7F83C32C3F861
:1059E000C020D7F83C32D3F8C0305A1CD7F83C322C
:1059F000C3F8C020D7F83C32D3F8C0305A1CD7F8CF
:105A00003C32C3F8C020D7F83C32D3F8C0305A1C1F
:105A1000D7F83C32C3F8C020D7F83C32D3F8C030B6
:105A20005A1CD7F83C32C3F8C02000BF00BF00BFEB
:105A300000BF00BF00BF00BF4A4BD968D7F83C3257
:105A40005B88DB43474A0B40D360D7F83C32D3E94D
:105A50002423511CC7F8501143F10003C7F85431F7
:105A6000D7F83C32D7E95412C3E924123D4BD96828
:105A7000D7F83C325B88DB433A4A0B40D360D7F817
:105A80003832D3E92201D7F83832D3E92C239042B7
:105A900071EB030368D2D7F83832D3E92889D7F8F5
:105AA0003832D3E92001D7F83832D3E91A2302FB80
:105AB00001F500FB03F42C44A0FB0232C7F81422CA
:105AC000C7F81032D7F81432E318C7F81432D7F8F1
:105AD00044320022C7F84831C7F84C21D7E9522395
